{
  "contractName": "BookReview",
  "abi": [
    {
      "inputs": [],
      "stateMutability": "nonpayable",
      "type": "constructor"
    },
    {
      "anonymous": false,
      "inputs": [
        {
          "indexed": true,
          "internalType": "uint256",
          "name": "_bookId",
          "type": "uint256"
        }
      ],
      "name": "ratingEvent",
      "type": "event"
    },
    {
      "inputs": [
        {
          "internalType": "uint256",
          "name": "",
          "type": "uint256"
        }
      ],
      "name": "bookRatings",
      "outputs": [
        {
          "internalType": "address",
          "name": "user",
          "type": "address"
        },
        {
          "internalType": "string",
          "name": "comment",
          "type": "string"
        },
        {
          "internalType": "uint256",
          "name": "rate",
          "type": "uint256"
        }
      ],
      "stateMutability": "view",
      "type": "function",
      "constant": true
    },
    {
      "inputs": [
        {
          "internalType": "uint256",
          "name": "",
          "type": "uint256"
        }
      ],
      "name": "books",
      "outputs": [
        {
          "internalType": "uint256",
          "name": "id",
          "type": "uint256"
        },
        {
          "internalType": "string",
          "name": "name",
          "type": "string"
        },
        {
          "internalType": "uint256",
          "name": "ratingsCount",
          "type": "uint256"
        }
      ],
      "stateMutability": "view",
      "type": "function",
      "constant": true
    },
    {
      "inputs": [],
      "name": "booksCount",
      "outputs": [
        {
          "internalType": "uint256",
          "name": "",
          "type": "uint256"
        }
      ],
      "stateMutability": "view",
      "type": "function",
      "constant": true
    },
    {
      "inputs": [],
      "name": "userRatingCount",
      "outputs": [
        {
          "internalType": "uint256",
          "name": "",
          "type": "uint256"
        }
      ],
      "stateMutability": "view",
      "type": "function",
      "constant": true
    },
    {
      "inputs": [
        {
          "internalType": "string",
          "name": "_name",
          "type": "string"
        }
      ],
      "name": "addBook",
      "outputs": [],
      "stateMutability": "nonpayable",
      "type": "function"
    },
    {
      "inputs": [
        {
          "internalType": "uint256",
          "name": "_bookId",
          "type": "uint256"
        },
        {
          "internalType": "string",
          "name": "_comment",
          "type": "string"
        },
        {
          "internalType": "uint256",
          "name": "_rate",
          "type": "uint256"
        }
      ],
      "name": "rate",
      "outputs": [],
      "stateMutability": "nonpayable",
      "type": "function"
    }
  ],
  "bytecode": "0x60806040523480156200001157600080fd5b50620000586040518060400160405280600681526020017f426f6f6b20310000000000000000000000000000000000000000000000000000815250620000ea60201b60201c565b6200009e6040518060400160405280600681526020017f426f6f6b20320000000000000000000000000000000000000000000000000000815250620000ea60201b60201c565b620000e46040518060400160405280600681526020017f426f6f6b20330000000000000000000000000000000000000000000000000000815250620000ea60201b60201c565b6200030c565b60026000815480929190620000ff9062000259565b91905055506040518060600160405280600254815260200182815260200160008152506001600060025481526020019081526020016000206000820151816000015560208201518160010190805190602001906200015f92919062000170565b506040820151816002015590505050565b8280546200017e90620002d6565b90600052602060002090601f016020900481019282620001a25760008555620001ee565b82601f10620001bd57805160ff1916838001178555620001ee565b82800160010185558215620001ee579182015b82811115620001ed578251825591602001919060010190620001d0565b5b509050620001fd919062000201565b5090565b5b808211156200021c57600081600090555060010162000202565b5090565b7f4e487b7100000000000000000000000000000000000000000000000000000000600052601160045260246000fd5b6000819050919050565b600062000266826200024f565b91507fffffffffffffffffffffffffffffffffffffffffffffffffffffffffffffffff8214156200029c576200029b62000220565b5b600182019050919050565b7f4e487b7100000000000000000000000000000000000000000000000000000000600052602260045260246000fd5b60006002820490506001821680620002ef57607f821691505b60208210811415620003065762000305620002a7565b5b50919050565b610a2c806200031c6000396000f3fe608060405234801561001057600080fd5b50600436106100625760003560e01c806331a38345146100675780633bc5f48a146100855780634551cbe5146100a157806368744046146100bd57806370d129ab146100ef578063e1cb4d0314610121575b600080fd5b61006f61013f565b60405161007c9190610552565b60405180910390f35b61009f600480360381019061009a91906106c7565b610145565b005b6100bb60048036038101906100b6919061073c565b6101c7565b005b6100d760048036038101906100d291906107ab565b61030c565b6040516100e693929190610860565b60405180910390f35b610109600480360381019061010491906107ab565b6103be565b604051610118939291906108df565b60405180910390f35b610129610490565b6040516101369190610552565b60405180910390f35b60035481565b600260008154809291906101589061094c565b91905055506040518060600160405280600254815260200182815260200160008152506001600060025481526020019081526020016000206000820151816000015560208201518160010190805190602001906101b6929190610496565b506040820151816002015590505050565b6000831180156101d957506002548311155b6101e257600080fd5b6001600084815260200190815260200160002060020160008154809291906102099061094c565b9190505550600360008154809291906102219061094c565b919050555060405180606001604052803373ffffffffffffffffffffffffffffffffffffffff1681526020018381526020018281525060008085815260200190815260200160002060008201518160000160006101000a81548173ffffffffffffffffffffffffffffffffffffffff021916908373ffffffffffffffffffffffffffffffffffffffff16021790555060208201518160010190805190602001906102cc929190610496565b5060408201518160020155905050827fae3a74cf5b769ce9baf1c92e6ed6c27dee1827083223420ed427d2d97a6766c560405160405180910390a2505050565b6001602052806000526040600020600091509050806000015490806001018054610335906109c4565b80601f0160208091040260200160405190810160405280929190818152602001828054610361906109c4565b80156103ae5780601f10610383576101008083540402835291602001916103ae565b820191906000526020600020905b81548152906001019060200180831161039157829003601f168201915b5050505050908060020154905083565b60006020528060005260406000206000915090508060000160009054906101000a900473ffffffffffffffffffffffffffffffffffffffff1690806001018054610407906109c4565b80601f0160208091040260200160405190810160405280929190818152602001828054610433906109c4565b80156104805780601f1061045557610100808354040283529160200191610480565b820191906000526020600020905b81548152906001019060200180831161046357829003601f168201915b5050505050908060020154905083565b60025481565b8280546104a2906109c4565b90600052602060002090601f0160209004810192826104c4576000855561050b565b82601f106104dd57805160ff191683800117855561050b565b8280016001018555821561050b579182015b8281111561050a5782518255916020019190600101906104ef565b5b509050610518919061051c565b5090565b5b8082111561053557600081600090555060010161051d565b5090565b6000819050919050565b61054c81610539565b82525050565b60006020820190506105676000830184610543565b92915050565b6000604051905090565b600080fd5b600080fd5b600080fd5b600080fd5b6000601f19601f8301169050919050565b7f4e487b7100000000000000000000000000000000000000000000000000000000600052604160045260246000fd5b6105d48261058b565b810181811067ffffffffffffffff821117156105f3576105f261059c565b5b80604052505050565b600061060661056d565b905061061282826105cb565b919050565b600067ffffffffffffffff8211156106325761063161059c565b5b61063b8261058b565b9050602081019050919050565b82818337600083830152505050565b600061066a61066584610617565b6105fc565b90508281526020810184848401111561068657610685610586565b5b610691848285610648565b509392505050565b600082601f8301126106ae576106ad610581565b5b81356106be848260208601610657565b91505092915050565b6000602082840312156106dd576106dc610577565b5b600082013567ffffffffffffffff8111156106fb576106fa61057c565b5b61070784828501610699565b91505092915050565b61071981610539565b811461072457600080fd5b50565b60008135905061073681610710565b92915050565b60008060006060848603121561075557610754610577565b5b600061076386828701610727565b935050602084013567ffffffffffffffff8111156107845761078361057c565b5b61079086828701610699565b92505060406107a186828701610727565b9150509250925092565b6000602082840312156107c1576107c0610577565b5b60006107cf84828501610727565b91505092915050565b600081519050919050565b600082825260208201905092915050565b60005b838110156108125780820151818401526020810190506107f7565b83811115610821576000848401525b50505050565b6000610832826107d8565b61083c81856107e3565b935061084c8185602086016107f4565b6108558161058b565b840191505092915050565b60006060820190506108756000830186610543565b81810360208301526108878185610827565b90506108966040830184610543565b949350505050565b600073ffffffffffffffffffffffffffffffffffffffff82169050919050565b60006108c98261089e565b9050919050565b6108d9816108be565b82525050565b60006060820190506108f460008301866108d0565b81810360208301526109068185610827565b90506109156040830184610543565b949350505050565b7f4e487b7100000000000000000000000000000000000000000000000000000000600052601160045260246000fd5b600061095782610539565b91507fffffffffffffffffffffffffffffffffffffffffffffffffffffffffffffffff82141561098a5761098961091d565b5b600182019050919050565b7f4e487b7100000000000000000000000000000000000000000000000000000000600052602260045260246000fd5b600060028204905060018216806109dc57607f821691505b602082108114156109f0576109ef610995565b5b5091905056fea2646970667358221220deb8bf96a5cf8166a27bcbec45334c48796d9d68f361d322ad91180c3b91c12464736f6c63430008090033",
  "immutableReferences": {},
  "source": "// SPDX-License-Identifier: MIT\npragma solidity >=0.4.22 <0.9.0;\n\ncontract BookReview {\n  struct Book {\n    uint256 id;\n    string name;\n    uint256 ratingsCount;\n  }\n  struct UserRating {\n    address user;\n    string comment;\n    uint256 rate;\n  }\n\n  // Map ratings book_id -> Book\n  mapping(uint256 => UserRating) public bookRatings;\n\n  mapping(uint256 => Book) public books;\n  uint256 public booksCount;\n  uint256 public userRatingCount;\n\n  event ratingEvent(uint256 indexed _bookId);\n\n  constructor() {\n    addBook(\"Book 1\");\n    addBook(\"Book 2\");\n    addBook(\"Book 3\");\n  }\n\n  function addBook(string memory _name) public {\n    booksCount++;\n    books[booksCount] = Book(booksCount, _name, 0);\n  }\n\n  function rate(\n    uint256 _bookId,\n    string memory _comment,\n    uint256 _rate\n  ) public {\n    // require a valid book\n    require(_bookId > 0 && _bookId <= booksCount);\n\n    // update book rating Count\n    books[_bookId].ratingsCount++;\n\n    userRatingCount++;\n    bookRatings[_bookId] = UserRating(msg.sender, _comment, _rate);\n\n    // trigger rating event\n    emit ratingEvent(_bookId);\n  }\n}\n",
  "sourcePath": "/mnt/c/Users/heyak/Documents/blockchain/bookblocks/contracts/BookReview.sol",
  "compiler": {
    "name": "solc",
    "version": "0.8.9+commit.e5eed63a.Emscripten.clang"
  },
  "schemaVersion": "3.4.3",
  "updatedAt": "2021-10-24T10:36:14.013Z",
  "networkType": "ethereum",
  "devdoc": {
    "kind": "dev",
    "methods": {},
    "version": 1
  },
  "userdoc": {
    "kind": "user",
    "methods": {},
    "version": 1
  }
}